{
  "_format": "hh-sol-artifact-1",
  "contractName": "TrustLink",
  "sourceName": "contracts/TrustLink.sol",
  "abi": [
    {
      "inputs": [
        {
          "internalType": "address",
          "name": "_paymentToken",
          "type": "address"
        },
        {
          "internalType": "uint256",
          "name": "_platformFee",
          "type": "uint256"
        }
      ],
      "stateMutability": "nonpayable",
      "type": "constructor"
    },
    {
      "anonymous": false,
      "inputs": [
        {
          "indexed": true,
          "internalType": "uint256",
          "name": "jobId",
          "type": "uint256"
        },
        {
          "indexed": true,
          "internalType": "address",
          "name": "client",
          "type": "address"
        },
        {
          "indexed": true,
          "internalType": "address",
          "name": "freelancer",
          "type": "address"
        }
      ],
      "name": "JobCompleted",
      "type": "event"
    },
    {
      "anonymous": false,
      "inputs": [
        {
          "indexed": true,
          "internalType": "uint256",
          "name": "jobId",
          "type": "uint256"
        },
        {
          "indexed": true,
          "internalType": "address",
          "name": "client",
          "type": "address"
        },
        {
          "indexed": false,
          "internalType": "string",
          "name": "title",
          "type": "string"
        },
        {
          "indexed": false,
          "internalType": "uint256",
          "name": "budget",
          "type": "uint256"
        }
      ],
      "name": "JobCreated",
      "type": "event"
    },
    {
      "anonymous": false,
      "inputs": [
        {
          "indexed": true,
          "internalType": "address",
          "name": "previousOwner",
          "type": "address"
        },
        {
          "indexed": true,
          "internalType": "address",
          "name": "newOwner",
          "type": "address"
        }
      ],
      "name": "OwnershipTransferred",
      "type": "event"
    },
    {
      "anonymous": false,
      "inputs": [
        {
          "indexed": true,
          "internalType": "uint256",
          "name": "jobId",
          "type": "uint256"
        },
        {
          "indexed": true,
          "internalType": "address",
          "name": "freelancer",
          "type": "address"
        },
        {
          "indexed": false,
          "internalType": "uint256",
          "name": "amount",
          "type": "uint256"
        }
      ],
      "name": "PaymentReleased",
      "type": "event"
    },
    {
      "anonymous": false,
      "inputs": [
        {
          "indexed": true,
          "internalType": "uint256",
          "name": "jobId",
          "type": "uint256"
        },
        {
          "indexed": false,
          "internalType": "uint256",
          "name": "proposalId",
          "type": "uint256"
        },
        {
          "indexed": true,
          "internalType": "address",
          "name": "freelancer",
          "type": "address"
        }
      ],
      "name": "ProposalAccepted",
      "type": "event"
    },
    {
      "anonymous": false,
      "inputs": [
        {
          "indexed": true,
          "internalType": "uint256",
          "name": "jobId",
          "type": "uint256"
        },
        {
          "indexed": false,
          "internalType": "uint256",
          "name": "proposalId",
          "type": "uint256"
        },
        {
          "indexed": true,
          "internalType": "address",
          "name": "freelancer",
          "type": "address"
        }
      ],
      "name": "ProposalSubmitted",
      "type": "event"
    },
    {
      "inputs": [
        {
          "internalType": "uint256",
          "name": "_jobId",
          "type": "uint256"
        },
        {
          "internalType": "uint256",
          "name": "_proposalId",
          "type": "uint256"
        }
      ],
      "name": "acceptProposal",
      "outputs": [],
      "stateMutability": "nonpayable",
      "type": "function"
    },
    {
      "inputs": [
        {
          "internalType": "uint256",
          "name": "_jobId",
          "type": "uint256"
        }
      ],
      "name": "completeJob",
      "outputs": [],
      "stateMutability": "nonpayable",
      "type": "function"
    },
    {
      "inputs": [
        {
          "internalType": "string",
          "name": "_title",
          "type": "string"
        },
        {
          "internalType": "string",
          "name": "_description",
          "type": "string"
        },
        {
          "internalType": "uint256",
          "name": "_budget",
          "type": "uint256"
        },
        {
          "internalType": "bool",
          "name": "_isFixed",
          "type": "bool"
        },
        {
          "internalType": "uint256",
          "name": "_deadline",
          "type": "uint256"
        }
      ],
      "name": "createJob",
      "outputs": [],
      "stateMutability": "nonpayable",
      "type": "function"
    },
    {
      "inputs": [
        {
          "internalType": "string",
          "name": "_name",
          "type": "string"
        },
        {
          "internalType": "string",
          "name": "_skills",
          "type": "string"
        },
        {
          "internalType": "enum TrustLink.UserType",
          "name": "_userType",
          "type": "uint8"
        }
      ],
      "name": "createProfile",
      "outputs": [],
      "stateMutability": "nonpayable",
      "type": "function"
    },
    {
      "inputs": [
        {
          "internalType": "uint256",
          "name": "_jobId",
          "type": "uint256"
        }
      ],
      "name": "getJob",
      "outputs": [
        {
          "components": [
            {
              "internalType": "uint256",
              "name": "id",
              "type": "uint256"
            },
            {
              "internalType": "address",
              "name": "client",
              "type": "address"
            },
            {
              "internalType": "string",
              "name": "title",
              "type": "string"
            },
            {
              "internalType": "string",
              "name": "description",
              "type": "string"
            },
            {
              "internalType": "uint256",
              "name": "budget",
              "type": "uint256"
            },
            {
              "internalType": "bool",
              "name": "isFixed",
              "type": "bool"
            },
            {
              "internalType": "bool",
              "name": "isActive",
              "type": "bool"
            },
            {
              "internalType": "address",
              "name": "freelancer",
              "type": "address"
            },
            {
              "internalType": "uint256",
              "name": "deadline",
              "type": "uint256"
            },
            {
              "internalType": "enum TrustLink.JobStatus",
              "name": "status",
              "type": "uint8"
            }
          ],
          "internalType": "struct TrustLink.Job",
          "name": "",
          "type": "tuple"
        }
      ],
      "stateMutability": "view",
      "type": "function"
    },
    {
      "inputs": [
        {
          "internalType": "uint256",
          "name": "_jobId",
          "type": "uint256"
        }
      ],
      "name": "getJobProposals",
      "outputs": [
        {
          "components": [
            {
              "internalType": "uint256",
              "name": "id",
              "type": "uint256"
            },
            {
              "internalType": "uint256",
              "name": "jobId",
              "type": "uint256"
            },
            {
              "internalType": "address",
              "name": "freelancer",
              "type": "address"
            },
            {
              "internalType": "uint256",
              "name": "bid",
              "type": "uint256"
            },
            {
              "internalType": "string",
              "name": "description",
              "type": "string"
            },
            {
              "internalType": "bool",
              "name": "accepted",
              "type": "bool"
            }
          ],
          "internalType": "struct TrustLink.Proposal[]",
          "name": "",
          "type": "tuple[]"
        }
      ],
      "stateMutability": "view",
      "type": "function"
    },
    {
      "inputs": [
        {
          "internalType": "address",
          "name": "_user",
          "type": "address"
        }
      ],
      "name": "getUserProfile",
      "outputs": [
        {
          "components": [
            {
              "internalType": "string",
              "name": "name",
              "type": "string"
            },
            {
              "internalType": "string",
              "name": "skills",
              "type": "string"
            },
            {
              "internalType": "uint256",
              "name": "rating",
              "type": "uint256"
            },
            {
              "internalType": "uint256",
              "name": "totalRatings",
              "type": "uint256"
            },
            {
              "internalType": "bool",
              "name": "isVerified",
              "type": "bool"
            },
            {
              "internalType": "enum TrustLink.UserType",
              "name": "userType",
              "type": "uint8"
            }
          ],
          "internalType": "struct TrustLink.UserProfile",
          "name": "",
          "type": "tuple"
        }
      ],
      "stateMutability": "view",
      "type": "function"
    },
    {
      "inputs": [],
      "name": "jobCounter",
      "outputs": [
        {
          "internalType": "uint256",
          "name": "",
          "type": "uint256"
        }
      ],
      "stateMutability": "view",
      "type": "function"
    },
    {
      "inputs": [
        {
          "internalType": "uint256",
          "name": "",
          "type": "uint256"
        },
        {
          "internalType": "uint256",
          "name": "",
          "type": "uint256"
        }
      ],
      "name": "jobProposals",
      "outputs": [
        {
          "internalType": "uint256",
          "name": "id",
          "type": "uint256"
        },
        {
          "internalType": "uint256",
          "name": "jobId",
          "type": "uint256"
        },
        {
          "internalType": "address",
          "name": "freelancer",
          "type": "address"
        },
        {
          "internalType": "uint256",
          "name": "bid",
          "type": "uint256"
        },
        {
          "internalType": "string",
          "name": "description",
          "type": "string"
        },
        {
          "internalType": "bool",
          "name": "accepted",
          "type": "bool"
        }
      ],
      "stateMutability": "view",
      "type": "function"
    },
    {
      "inputs": [
        {
          "internalType": "uint256",
          "name": "",
          "type": "uint256"
        }
      ],
      "name": "jobs",
      "outputs": [
        {
          "internalType": "uint256",
          "name": "id",
          "type": "uint256"
        },
        {
          "internalType": "address",
          "name": "client",
          "type": "address"
        },
        {
          "internalType": "string",
          "name": "title",
          "type": "string"
        },
        {
          "internalType": "string",
          "name": "description",
          "type": "string"
        },
        {
          "internalType": "uint256",
          "name": "budget",
          "type": "uint256"
        },
        {
          "internalType": "bool",
          "name": "isFixed",
          "type": "bool"
        },
        {
          "internalType": "bool",
          "name": "isActive",
          "type": "bool"
        },
        {
          "internalType": "address",
          "name": "freelancer",
          "type": "address"
        },
        {
          "internalType": "uint256",
          "name": "deadline",
          "type": "uint256"
        },
        {
          "internalType": "enum TrustLink.JobStatus",
          "name": "status",
          "type": "uint8"
        }
      ],
      "stateMutability": "view",
      "type": "function"
    },
    {
      "inputs": [],
      "name": "owner",
      "outputs": [
        {
          "internalType": "address",
          "name": "",
          "type": "address"
        }
      ],
      "stateMutability": "view",
      "type": "function"
    },
    {
      "inputs": [],
      "name": "paymentToken",
      "outputs": [
        {
          "internalType": "contract IERC20",
          "name": "",
          "type": "address"
        }
      ],
      "stateMutability": "view",
      "type": "function"
    },
    {
      "inputs": [],
      "name": "platformFee",
      "outputs": [
        {
          "internalType": "uint256",
          "name": "",
          "type": "uint256"
        }
      ],
      "stateMutability": "view",
      "type": "function"
    },
    {
      "inputs": [],
      "name": "proposalCounter",
      "outputs": [
        {
          "internalType": "uint256",
          "name": "",
          "type": "uint256"
        }
      ],
      "stateMutability": "view",
      "type": "function"
    },
    {
      "inputs": [],
      "name": "renounceOwnership",
      "outputs": [],
      "stateMutability": "nonpayable",
      "type": "function"
    },
    {
      "inputs": [
        {
          "internalType": "uint256",
          "name": "_jobId",
          "type": "uint256"
        },
        {
          "internalType": "uint256",
          "name": "_bid",
          "type": "uint256"
        },
        {
          "internalType": "string",
          "name": "_description",
          "type": "string"
        }
      ],
      "name": "submitProposal",
      "outputs": [],
      "stateMutability": "nonpayable",
      "type": "function"
    },
    {
      "inputs": [
        {
          "internalType": "address",
          "name": "newOwner",
          "type": "address"
        }
      ],
      "name": "transferOwnership",
      "outputs": [],
      "stateMutability": "nonpayable",
      "type": "function"
    },
    {
      "inputs": [
        {
          "internalType": "uint256",
          "name": "_newFee",
          "type": "uint256"
        }
      ],
      "name": "updatePlatformFee",
      "outputs": [],
      "stateMutability": "nonpayable",
      "type": "function"
    },
    {
      "inputs": [
        {
          "internalType": "address",
          "name": "",
          "type": "address"
        }
      ],
      "name": "userEscrowBalances",
      "outputs": [
        {
          "internalType": "uint256",
          "name": "",
          "type": "uint256"
        }
      ],
      "stateMutability": "view",
      "type": "function"
    },
    {
      "inputs": [
        {
          "internalType": "address",
          "name": "",
          "type": "address"
        },
        {
          "internalType": "uint256",
          "name": "",
          "type": "uint256"
        }
      ],
      "name": "userJobs",
      "outputs": [
        {
          "internalType": "uint256",
          "name": "",
          "type": "uint256"
        }
      ],
      "stateMutability": "view",
      "type": "function"
    },
    {
      "inputs": [
        {
          "internalType": "address",
          "name": "",
          "type": "address"
        }
      ],
      "name": "userProfiles",
      "outputs": [
        {
          "internalType": "string",
          "name": "name",
          "type": "string"
        },
        {
          "internalType": "string",
          "name": "skills",
          "type": "string"
        },
        {
          "internalType": "uint256",
          "name": "rating",
          "type": "uint256"
        },
        {
          "internalType": "uint256",
          "name": "totalRatings",
          "type": "uint256"
        },
        {
          "internalType": "bool",
          "name": "isVerified",
          "type": "bool"
        },
        {
          "internalType": "enum TrustLink.UserType",
          "name": "userType",
          "type": "uint8"
        }
      ],
      "stateMutability": "view",
      "type": "function"
    },
    {
      "inputs": [
        {
          "internalType": "address",
          "name": "_user",
          "type": "address"
        }
      ],
      "name": "verifyUser",
      "outputs": [],
      "stateMutability": "nonpayable",
      "type": "function"
    }
  ],
  "bytecode": "0x60806040523480156200001157600080fd5b506040516200246d3803806200246d8339810160408190526200003491620000c0565b600160005562000044336200006e565b600a80546001600160a01b0319166001600160a01b039390931692909217909155600955620000fc565b600180546001600160a01b038381166001600160a01b0319831681179093556040519116919082907f8be0079c531659141344cd1fd0a4f28419497f9722a3daafe3b4186f6b6457e090600090a35050565b60008060408385031215620000d457600080fd5b82516001600160a01b0381168114620000ec57600080fd5b6020939093015192949293505050565b612361806200010c6000396000f3fe608060405234801561001057600080fd5b50600436106101425760003560e01c80638da5cb5b116100b8578063aa0b59881161007c578063aa0b5988146102da578063bf22c457146102ed578063c17ff9d21461030d578063e1e1d5ca14610320578063ea3aa41f14610333578063f2fde38b1461034657600080fd5b80638da5cb5b1461026357806390538fe914610274578063987ee15614610294578063a1c0d32f146102b4578063a30cd0a8146102c757600080fd5b8063332d56d71161010a578063332d56d7146101d55780634d813120146101fa57806350355d761461020d578063715018a61461021657806385ad915e1461021e5780638cc14d051461023e57600080fd5b80630c0512e9146101475780630edbaa8814610163578063180aedf31461017857806326232a2e146101a15780633013ce29146101aa575b600080fd5b61015060085481565b6040519081526020015b60405180910390f35b610176610171366004611b6c565b610359565b005b61018b610186366004611be8565b61042f565b60405161015a9a99989796959493929190611c71565b61015060095481565b600a546101bd906001600160a01b031681565b6040516001600160a01b03909116815260200161015a565b6101e86101e3366004611d13565b6105ab565b60405161015a96959493929190611d45565b610176610208366004611d13565b6106f7565b61015060075481565b610176610727565b61015061022c366004611d13565b60066020526000908152604090205481565b61025161024c366004611d99565b61073b565b60405161015a96959493929190611dbb565b6001546001600160a01b03166101bd565b610287610282366004611be8565b61082a565b60405161015a9190611e03565b6102a76102a2366004611d13565b610975565b60405161015a9190611eb2565b6101766102c2366004611be8565b610b1f565b6101766102d5366004611f36565b610e60565b6101766102e8366004611be8565b611196565b6103006102fb366004611be8565b6111e4565b60405161015a9190611fbe565b61015061031b366004612092565b6113bc565b61017661032e366004611d99565b6113ed565b6101766103413660046120bc565b611668565b610176610354366004611d13565b611892565b6040518060c00160405280848152602001838152602001600081526020016000815260200160001515815260200182600181111561039957610399611c47565b9052336000908152600460205260409020815181906103b89082612195565b50602082015160018201906103cd9082612195565b506040820151600282015560608201516003820155608082015160048201805491151560ff1983168117825560a08501519261ff001990911661ffff199091161761010083600181111561042357610423611c47565b02179055505050505050565b600260208190526000918252604090912080546001820154928201805491936001600160a01b031692916104629061210c565b80601f016020809104026020016040519081016040528092919081815260200182805461048e9061210c565b80156104db5780601f106104b0576101008083540402835291602001916104db565b820191906000526020600020905b8154815290600101906020018083116104be57829003601f168201915b5050505050908060030180546104f09061210c565b80601f016020809104026020016040519081016040528092919081815260200182805461051c9061210c565b80156105695780601f1061053e57610100808354040283529160200191610569565b820191906000526020600020905b81548152906001019060200180831161054c57829003601f168201915b505050506004830154600584015460068501546007909501549394919360ff80831694506101008304811693620100009093046001600160a01b03169291168a565b6004602052600090815260409020805481906105c69061210c565b80601f01602080910402602001604051908101604052809291908181526020018280546105f29061210c565b801561063f5780601f106106145761010080835404028352916020019161063f565b820191906000526020600020905b81548152906001019060200180831161062257829003601f168201915b5050505050908060010180546106549061210c565b80601f01602080910402602001604051908101604052809291908181526020018280546106809061210c565b80156106cd5780601f106106a2576101008083540402835291602001916106cd565b820191906000526020600020905b8154815290600101906020018083116106b057829003601f168201915b50505050600283015460038401546004909401549293909290915060ff8082169161010090041686565b6106ff611908565b6001600160a01b0316600090815260046020819052604090912001805460ff19166001179055565b61072f611908565b6107396000611962565b565b6003602052816000526040600020818154811061075757600080fd5b6000918252602090912060069091020180546001820154600283015460038401546004850180549497509295506001600160a01b0390911693909290919061079e9061210c565b80601f01602080910402602001604051908101604052809291908181526020018280546107ca9061210c565b80156108175780601f106107ec57610100808354040283529160200191610817565b820191906000526020600020905b8154815290600101906020018083116107fa57829003601f168201915b5050506005909301549192505060ff1686565b606060036000838152602001908152602001600020805480602002602001604051908101604052809291908181526020016000905b8282101561096a5760008481526020908190206040805160c081018252600686029092018054835260018101549383019390935260028301546001600160a01b031690820152600382015460608201526004820180549192916080840191906108c79061210c565b80601f01602080910402602001604051908101604052809291908181526020018280546108f39061210c565b80156109405780601f1061091557610100808354040283529160200191610940565b820191906000526020600020905b81548152906001019060200180831161092357829003601f168201915b50505091835250506005919091015460ff161515602091820152908252600192909201910161085f565b505050509050919050565b61097d611a0d565b6001600160a01b03821660009081526004602052604090819020815160c081019092528054829082906109af9061210c565b80601f01602080910402602001604051908101604052809291908181526020018280546109db9061210c565b8015610a285780601f106109fd57610100808354040283529160200191610a28565b820191906000526020600020905b815481529060010190602001808311610a0b57829003601f168201915b50505050508152602001600182018054610a419061210c565b80601f0160208091040260200160405190810160405280929190818152602001828054610a6d9061210c565b8015610aba5780601f10610a8f57610100808354040283529160200191610aba565b820191906000526020600020905b815481529060010190602001808311610a9d57829003601f168201915b50505091835250506002820154602082015260038201546040820152600482015460ff80821615156060840152608090920191610100909104166001811115610b0557610b05611c47565b6001811115610b1657610b16611c47565b90525092915050565b610b276119b4565b600081815260026020526040902060018101546001600160a01b03163314610b865760405162461bcd60e51b815260206004820152600d60248201526c2737ba103537b11037bbb732b960991b60448201526064015b60405180910390fd5b6001600782015460ff166003811115610ba157610ba1611c47565b14610be35760405162461bcd60e51b8152602060048201526012602482015271496e76616c6964206a6f622073746174757360701b6044820152606401610b7d565b600481015460095460009061271090610bfc908461226b565b610c069190612288565b60078401805460ff19166002179055600a54600585015460405163a9059cbb60e01b81526001600160a01b03620100009092048216600482015260248101869052929350169063a9059cbb906044016020604051808303816000875af1158015610c74573d6000803e3d6000fd5b505050506040513d601f19601f82011682018060405250810190610c9891906122aa565b610ce45760405162461bcd60e51b815260206004820152601760248201527f5061796d656e74207472616e73666572206661696c65640000000000000000006044820152606401610b7d565b600a546001600160a01b031663a9059cbb610d076001546001600160a01b031690565b6040516001600160e01b031960e084901b1681526001600160a01b039091166004820152602481018490526044016020604051808303816000875af1158015610d54573d6000803e3d6000fd5b505050506040513d601f19601f82011682018060405250810190610d7891906122aa565b610dba5760405162461bcd60e51b8152602060048201526013602482015272119959481d1c985b9cd9995c8819985a5b1959606a1b6044820152606401610b7d565b60058301546001840154604051620100009092046001600160a01b039081169291169086907f83aa8dba9a1eb0d195d9fcd60aa730dedd9b92ac3e84c0195126680415c62dd190600090a46005830154604051838152620100009091046001600160a01b03169085907f21d71db5be59bb9fa133895586b7404307dd33fb93b16db09dc6f1d9d7d231b09060200160405180910390a3505050610e5d6001600055565b50565b60008311610ea15760405162461bcd60e51b815260206004820152600e60248201526d125b9d985b1a5908189d5919d95d60921b6044820152606401610b7d565b428111610ee35760405162461bcd60e51b815260206004820152601060248201526f496e76616c696420646561646c696e6560801b6044820152606401610b7d565b600061271060095485610ef6919061226b565b610f009190612288565b610f0a90856122c7565b600a546040516323b872dd60e01b8152336004820152306024820152604481018390529192506001600160a01b0316906323b872dd906064016020604051808303816000875af1158015610f62573d6000803e3d6000fd5b505050506040513d601f19601f82011682018060405250810190610f8691906122aa565b610fcb5760405162461bcd60e51b8152602060048201526016602482015275115cd8dc9bddc81d1c985b9cd9995c8819985a5b195960521b6044820152606401610b7d565b60408051610140810182526007548152336020820152908101879052606081018690526080810185905283151560a0820152600160c0820152600060e08201819052610100820184905261012082015260075460009081526002602081815260409283902084518155908401516001820180546001600160a01b0319166001600160a01b03909216919091179055918301519082019061106b9082612195565b50606082015160038201906110809082612195565b506080820151600482015560a082015160058201805460c085015160e086015161ffff1990921693151561ff0019169390931761010093151584021762010000600160b01b031916620100006001600160a01b0390921691909102179055820151600682015561012082015160078201805460ff1916600183600381111561110a5761110a611c47565b02179055505033600081815260056020908152604080832060078054825460018101845592865293909420019190915590549051919250907fe2664ff85acbefce4793e83fe4a10e88680b3172a3e401c7946d7cfb8f19ebdb90611171908a9089906122da565b60405180910390a360078054906000611189836122fc565b9190505550505050505050565b61119e611908565b6103e88111156111df5760405162461bcd60e51b815260206004820152600c60248201526b08ccaca40e8dede40d0d2ced60a31b6044820152606401610b7d565b600955565b6111ec611a55565b6000828152600260208181526040928390208351610140810185528154815260018201546001600160a01b031692810192909252918201805491938401916112339061210c565b80601f016020809104026020016040519081016040528092919081815260200182805461125f9061210c565b80156112ac5780601f10611281576101008083540402835291602001916112ac565b820191906000526020600020905b81548152906001019060200180831161128f57829003601f168201915b505050505081526020016003820180546112c59061210c565b80601f01602080910402602001604051908101604052809291908181526020018280546112f19061210c565b801561133e5780601f106113135761010080835404028352916020019161133e565b820191906000526020600020905b81548152906001019060200180831161132157829003601f168201915b505050918352505060048201546020820152600582015460ff808216151560408401526101008204811615156060840152620100009091046001600160a01b03166080830152600683015460a0830152600783015460c0909201911660038111156113ab576113ab611c47565b6003811115610b1657610b16611c47565b600560205281600052604060002081815481106113d857600080fd5b90600052602060002001600091509150505481565b6000828152600260205260409020600101546001600160a01b031633146114465760405162461bcd60e51b815260206004820152600d60248201526c2737ba103537b11037bbb732b960991b6044820152606401610b7d565b60008281526002602052604081206007015460ff16600381111561146c5761146c611c47565b146114ab5760405162461bcd60e51b815260206004820152600f60248201526e2537b11034b9903737ba1037b832b760891b6044820152606401610b7d565b60008281526003602052604081209080805b835481101561150e57848482815481106114d9576114d9612315565b906000526020600020906006020160000154036114fc578092506001915061150e565b80611506816122fc565b9150506114bd565b50806115515760405162461bcd60e51b8152602060048201526012602482015271141c9bdc1bdcd85b081b9bdd08199bdd5b9960721b6044820152606401610b7d565b600183838154811061156557611565612315565b906000526020600020906006020160050160006101000a81548160ff02191690831515021790555082828154811061159f5761159f612315565b600091825260208083206006929092029091016002908101548884529152604090912060058101805462010000600160b01b0319166001600160a01b03909316620100000292909217909155600701805460ff19166001179055825483908390811061160d5761160d612315565b6000918252602091829020600690910201600201546040518681526001600160a01b039091169187917f1073cc4457a4ad6cba8e9d76cfdf6f9af900c002dcfff7b2db54f115a017f7b7910160405180910390a35050505050565b600083815260026020526040902060050154610100900460ff166116c25760405162461bcd60e51b81526020600482015260116024820152704a6f62206973206e6f742061637469766560781b6044820152606401610b7d565b60008381526002602052604081206007015460ff1660038111156116e8576116e8611c47565b146117275760405162461bcd60e51b815260206004820152600f60248201526e2537b11034b9903737ba1037b832b760891b6044820152606401610b7d565b60008381526002602052604090206004015482111561177d5760405162461bcd60e51b8152602060048201526012602482015271109a5908195e18d959591cc8189d5919d95d60721b6044820152606401610b7d565b6040805160c08101825260085481526020808201868152338385019081526060840187815260808501878152600060a087018190528a8152600380875297812080546001808201835591835296909120875160069097020195865593519385019390935590516002840180546001600160a01b0319166001600160a01b03909216919091179055519382019390935591519091829160048201906118219082612195565b5060a091909101516005909101805460ff1916911515919091179055600854604051908152339085907f966cf093e76ae922a8f15d44dcf28a095f8f2e52ceaeb4c08557a0e9b7d518fa9060200160405180910390a360088054906000611887836122fc565b919050555050505050565b61189a611908565b6001600160a01b0381166118ff5760405162461bcd60e51b815260206004820152602660248201527f4f776e61626c653a206e6577206f776e657220697320746865207a65726f206160448201526564647265737360d01b6064820152608401610b7d565b610e5d81611962565b6001546001600160a01b031633146107395760405162461bcd60e51b815260206004820181905260248201527f4f776e61626c653a2063616c6c6572206973206e6f7420746865206f776e65726044820152606401610b7d565b600180546001600160a01b038381166001600160a01b0319831681179093556040519116919082907f8be0079c531659141344cd1fd0a4f28419497f9722a3daafe3b4186f6b6457e090600090a35050565b600260005403611a065760405162461bcd60e51b815260206004820152601f60248201527f5265656e7472616e637947756172643a207265656e7472616e742063616c6c006044820152606401610b7d565b6002600055565b6040518060c001604052806060815260200160608152602001600081526020016000815260200160001515815260200160006001811115611a5057611a50611c47565b905290565b6040518061014001604052806000815260200160006001600160a01b0316815260200160608152602001606081526020016000815260200160001515815260200160001515815260200160006001600160a01b031681526020016000815260200160006003811115611a5057611a50611c47565b634e487b7160e01b600052604160045260246000fd5b600082601f830112611af057600080fd5b813567ffffffffffffffff80821115611b0b57611b0b611ac9565b604051601f8301601f19908116603f01168101908282118183101715611b3357611b33611ac9565b81604052838152866020858801011115611b4c57600080fd5b836020870160208301376000602085830101528094505050505092915050565b600080600060608486031215611b8157600080fd5b833567ffffffffffffffff80821115611b9957600080fd5b611ba587838801611adf565b94506020860135915080821115611bbb57600080fd5b50611bc886828701611adf565b925050604084013560028110611bdd57600080fd5b809150509250925092565b600060208284031215611bfa57600080fd5b5035919050565b6000815180845260005b81811015611c2757602081850181015186830182015201611c0b565b506000602082860101526020601f19601f83011685010191505092915050565b634e487b7160e01b600052602160045260246000fd5b60048110611c6d57611c6d611c47565b9052565b8a81526001600160a01b038a8116602083015261014060408301819052600091611c9d8483018d611c01565b91508382036060850152611cb1828c611c01565b925089608085015288151560a085015287151560c085015280871660e0850152505083610100830152611ce8610120830184611c5d565b9b9a5050505050505050505050565b80356001600160a01b0381168114611d0e57600080fd5b919050565b600060208284031215611d2557600080fd5b611d2e82611cf7565b9392505050565b60028110611c6d57611c6d611c47565b60c081526000611d5860c0830189611c01565b8281036020840152611d6a8189611c01565b9150508560408301528460608301528315156080830152611d8e60a0830184611d35565b979650505050505050565b60008060408385031215611dac57600080fd5b50508035926020909101359150565b86815285602082015260018060a01b038516604082015283606082015260c060808201526000611dee60c0830185611c01565b905082151560a0830152979650505050505050565b60006020808301818452808551808352604092508286019150828160051b87010184880160005b83811015611ea457888303603f190185528151805184528781015188850152868101516001600160a01b0316878501526060808201519085015260808082015160c08287018190529190611e8083880182611c01565b60a09485015115159790940196909652505094870194925090860190600101611e2a565b509098975050505050505050565b602081526000825160c06020840152611ece60e0840182611c01565b90506020840151601f19848303016040850152611eeb8282611c01565b91505060408401516060840152606084015160808401526080840151151560a084015260a0840151611f2060c0850182611d35565b509392505050565b8015158114610e5d57600080fd5b600080600080600060a08688031215611f4e57600080fd5b853567ffffffffffffffff80821115611f6657600080fd5b611f7289838a01611adf565b96506020880135915080821115611f8857600080fd5b50611f9588828901611adf565b945050604086013592506060860135611fad81611f28565b949793965091946080013592915050565b602081528151602082015260006020830151611fe560408401826001600160a01b03169052565b506040830151610140806060850152612002610160850183611c01565b91506060850151601f1985840301608086015261201f8382611c01565b925050608085015160a085015260a085015161203f60c086018215159052565b5060c085015180151560e08601525060e085015161010061206a818701836001600160a01b03169052565b86015161012086810191909152860151905061208882860182611c5d565b5090949350505050565b600080604083850312156120a557600080fd5b6120ae83611cf7565b946020939093013593505050565b6000806000606084860312156120d157600080fd5b8335925060208401359150604084013567ffffffffffffffff8111156120f657600080fd5b61210286828701611adf565b9150509250925092565b600181811c9082168061212057607f821691505b60208210810361214057634e487b7160e01b600052602260045260246000fd5b50919050565b601f82111561219057600081815260208120601f850160051c8101602086101561216d5750805b601f850160051c820191505b8181101561218c57828155600101612179565b5050505b505050565b815167ffffffffffffffff8111156121af576121af611ac9565b6121c3816121bd845461210c565b84612146565b602080601f8311600181146121f857600084156121e05750858301515b600019600386901b1c1916600185901b17855561218c565b600085815260208120601f198616915b8281101561222757888601518255948401946001909101908401612208565b50858210156122455787850151600019600388901b60f8161c191681555b5050505050600190811b01905550565b634e487b7160e01b600052601160045260246000fd5b808202811582820484141761228257612282612255565b92915050565b6000826122a557634e487b7160e01b600052601260045260246000fd5b500490565b6000602082840312156122bc57600080fd5b8151611d2e81611f28565b8082018082111561228257612282612255565b6040815260006122ed6040830185611c01565b90508260208301529392505050565b60006001820161230e5761230e612255565b5060010190565b634e487b7160e01b600052603260045260246000fdfea26469706673582212205734f741c9454d754462e79e6015d9df04e20d8e1024e2e04ad3cf74864cff6664736f6c63430008130033",
  "linkReferences": {},
  "deployedLinkReferences": {}
}